:020000040800F2
:1000000050040020C9060008490A00084B0A0008ED
:100010004F0A0008530A0008570A000800000000B1
:100020000000000000000000000000005B0A000863
:100030005D0A0008000000005F0A0008610A00086D
:10004000E3060008E3060008E30600085F2F000847
:10005000E3060008E3060008771B0008E306000833
:10006000E3060008E3060008E3060008E3060008CC
:10007000E3060008E3060008E3060008E3060008BC
:10008000E3060008E3060008E3060008E3060008AC
:10009000E3060008E3060008E3060008E30600089C
:1000A000E3060008E3060008E3060008E30600088C
:1000B000E3060008E3060008E3060008E30600087C
:1000C000E3060008E3060008E3060008E30600086C
:1000D000E3060008E3060008E3060008DB3000083A
:1000E000E3060008E3060008E3060008E30600084C
:1000F000E3060008E3060008E3060008E30600083C
:10010000E3060008E3060008E3060008E30600082B
:10011000E3060008E3060008E3060008E30600081B
:10012000E3060008E3060008E3060008E30600080B
:10013000DFF80CD004F0D4F900480047B9190008E2
:1001400050040020DF48006840F00100DD490860ED
:1001500008464068DC490840DA49486008460068BB
:10016000DA490840D74908600846006820F4802032
:1001700008600846406820F4FE0048604FF41F0005
:1001800088607047CF49096821F48031CD4A1160F9
:100190001146096821F480211160B0F5803F03D039
:1001A000B0F5802F0ED106E0C649096841F48031D0
:1001B000C44A116007E0C349096841F4A021C14A5B
:1001C000116000E000BF00BF704710B5014600227B
:1001D000002300204A11012A02D1BA4C236806E00C
:1001E000022A02D1B74C236A01E0B64C636A01F0DF
:1001F0001F02012494401C400CB1012000E00020AB
:1002000010BD38B5002000900024002500BF31202B
:10021000FFF7DBFF05460098401C00900098B0F502
:10022000A06F01D0002DF2D03120FFF7CEFF08B132
:10023000012400E00024204638BD01460020A14AE8
:10024000106820F0F80040EAC10010607047A04933
:1002500008607047024600209A4B586820F47C10D2
:1002600042EA01031843974B586070479849086663
:10027000704701460020934A506820F0030008436D
:10028000506070478F48406800F00C00704701468E
:1002900000208C4A506820F0F000084350607047FE
:1002A00001460020874A506820F4E060084350600F
:1002B000704701460020834A506820F4605040EAAD
:1002C000C1005060704729B17E4A527A02437D4B8B
:1002D0005A7204E07B4A527A82437A4B5A727047D0
:1002E0007B49D8310860704701460020754A506844
:1002F00020F440400843506070470021714A20328A
:100300001170704A82F82010012802D004280AD106
:1003100004E001216B4A2032117005E00521694A91
:100320002032117000E000BF00BF704769490860CB
:1003300070476449096A0143624A1162704765491E
:1003400044390860704730B50021002200240023A2
:100350005C4D6D6805F00C0121B1042905D0082918
:1003600023D105E05C4D056022E05B4D05601FE098
:10037000544D6D6805F47012524D6D6805F480346B
:10038000022505EB92421CB9544D554305600BE024
:100390004C4D6D6805F400351DB1504D5543056059
:1003A00002E04D4D5543056002E04B4D056000BF36
:1003B00000BF444D6D6805F0F0010909484D6B5CC4
:1003C0000568DD4045603F4D6D6805F4E061090A50
:1003D000434D6B5C4568DD4085603A4D6D6805F4C2
:1003E0006051C90A3E4D6B5C4568DD40C560354DC6
:1003F0006D6805F44041890B3A4D6B5CC568B5FBEF
:10040000F3F5056130BD29B12E4A526902432D4BE7
:100410005A6104E02B4A526982432A4B5A61704761
:1004200029B1284A92690243264B9A6104E0254A81
:1004300092698243234B9A61704729B1214AD2695C
:100440000243204BDA6104E01E4AD26982431D4B0D
:10045000DA61704729B11B4AD2680243194BDA604E
:1004600004E0184AD2688243164BDA60704729B11B
:10047000144A12690243134B1A6104E0114A1269CB
:100480008243104B1A617047124940390860704727
:100490000F49C86470470B49C87170470948406AE2
:1004A00040F0807007494862704701460020054AC5
:1004B00092680A400AB1012000E00020704701491B
:1004C00088727047001002400000FFF8FFFFF6FE40
:1004D000000042428004424200127A0000093D00BE
:1004E00000000020100000200CB5002001900090BA
:1004F0006C48006840F480306A49086000BF694871
:10050000006800F4003000900198401C01900098B1
:1005100018B90198B0F5A06FF1D16248006800F4F5
:10052000003010B10120009001E000200090009800
:10053000012843D15C48006840F010005A49086027
:100540000846006820F0030008600846006840F094
:1005500002000860534840685249486008464068B5
:1005600048600846406840F480604860084640683B
:1005700020F47C1048600846406840F4E810486069
:100580000846006840F08070086000BF4548006879
:1005900000F000700028F9D04248406820F00300C5
:1005A000404948600846406840F00200486000BF8B
:1005B0003C48406800F00C000828F9D10CBD10B58B
:1005C000FFF792FF10BD10B53648006840F00100FB
:1005D0003449086008464068344908403149486059
:1005E00008460068324908402E49086008460068FD
:1005F00020F4802008600846406820F4FE0048602F
:100600004FF41F008860FFF7DAFF4FF000602949C0
:10061000086010BD10B5002100200022214B5B684E
:1006200003F00C0121B1042906D0082928D107E0E4
:10063000214B224C236027E01F4B204C236023E0FA
:10064000184B5B6803F47010164B5B6803F4803240
:10065000022303EB904022B9194B4343174C23600C
:100660000DE0104B5B6803F4003323B1144B43439C
:10067000124C236003E0104B4343104C236003E013
:100680000D4B0E4C236000BF00BF064B5B68C3F3ED
:1006900003130C4CE15C094B1B68CB40074C2360F7
:1006A00010BD000000100240002002400000FFF8D2
:1006B000FFFFF6FE08ED00E000127A0014000020B3
:1006C00000093D0018000020064880470648004702
:1006D000FEE7FEE7FEE7FEE7FEE7FEE7FEE7FEE7F2
:1006E000FEE7FEE7C70500083101000810B5044623
:1006F000CC48844208D101210420FFF7ABFE002141
:100700000420FFF7A7FE46E0C748844208D1012134
:100710000820FFF79FFE00210820FFF79BFE3AE02C
:10072000C248844208D101211020FFF793FE002126
:100730001020FFF78FFE2EE0BD48844208D1012132
:100740002020FFF787FE00212020FFF783FE22E014
:10075000B848844208D101214020FFF77BFE0021E8
:100760004020FFF777FE16E0B348844208D101210C
:100770008020FFF76FFE00218020FFF76BFE0AE06C
:10078000AE48844207D101218015FFF763FE0021A6
:10079000A015FFF75FFE10BD10B501210846FFF759
:1007A00059FE00210120FFF755FE10BD2DE9F04153
:1007B000024600250026002000230024002791F88F
:1007C00003C00CF00F0591F803C00CF0100CBCF145
:1007D000000F03D091F802C04CEA050591F800C063
:1007E000BCF1000F31D0146800202BE04FF0010C59
:1007F0000CFA00F3B1F800C00CEA03069E4220D1C7
:1008000083004FF00F0C0CFA03F7BC4305FA03FC0E
:100810004CEA040491F803C0BCF1280F06D14FF054
:10082000010C0CFA00FCC2F814C00AE091F803C0F5
:10083000BCF1480F05D14FF0010C0CFA00FCC2F8D6
:1008400010C0401C0828D1D31460B1F800C0BCF11E
:10085000FF0F34DD546800202EE000F1080C4FF04B
:10086000010808FA0CF3B1F800C00CEA03069E4236
:1008700021D183004FF00F0C0CFA03F7BC4305FAAB
:1008800003FC4CEA040491F803C0BCF1280F05D125
:1008900000F1080C08FA0CF8C2F8148091F803C0B3
:1008A000BCF1480F07D100F1080C4FF0010808FA1D
:1008B0000CF8C2F81080401C0828CED35460BDE864
:1008C000F0814FF6FF710180022181700421C17017
:1008D00070470246002093680B400BB1012000E0F6
:1008E000002070470146886880B2704702460020A9
:1008F000D3680B400BB1012000E000207047014697
:10090000C86880B2704701617047416170470AB1A1
:10091000016100E041617047C16070474FF480326F
:100920000A438261816182618269826970470246FD
:100930000020434B18684FF68073184040EA0210BD
:1009400008433F4B186070473E49C8617047F0B597
:100950000A46002300240021002500F00046B6F1DD
:10096000004F02D1364EF16901E0354E7168C0F397
:10097000034583B200F44016B6F5401F08D121F0BC
:1009800070612F4E766826F070662D4F7E6012E003
:1009900000F48016B6F5801F06D1032606FA05F48A
:1009A000A14341F0706106E0460D360103FA06F6F8
:1009B000B14341F0706122B1460D360103FA06F6EB
:1009C000314300F00046B6F1004F02D11C4EF161F8
:1009D00001E01B4E7160F0BD30B500228B071C0F8B
:1009E0000F2303FA04F2164B08338C1053F824300B
:1009F0009343134C08348D1044F8253023468C1053
:100A000053F824308C07240F00FA04F423430C4CD1
:100A100008348D1044F8253030BD0A49DC310860B7
:100A20007047000000080140000C01400010014028
:100A30000014014000180140001C0140002001404A
:100A40000000014000002042704700BFFEE700BFE9
:100A5000FEE700BFFEE700BFFEE770477047704744
:100A60007047000031490143314A1160704770B549
:100A7000002100230F22C47804B32D4C246804F411
:100A8000E064C4F5E064210AC1F10403CA4044787B
:100A900004FA03F18478144021430901254C0678B7
:100AA000A155047804F01F050124AC4005786D11B0
:100AB000AD0005F1E025C5F8004109E0047804F037
:100AC0001F050124AC401C4D0678761145F82640E0
:100AD00070BD1A4A0A400243154B1B1F1A6070472B
:100AE00039B1134A121D12680243114B1B1D1A60C3
:100AF00006E00F4A121D126882430D4B1B1D1A603F
:100B00007047042808D14FF0E021096941F0040141
:100B10004FF0E022116107E04FF0E021096921F078
:100B200004014FF0E0221161704700000000FA0557
:100B30000CED00E000E400E080E100E080FFFF1F3A
:100B400010B50120FFF7A0FC0020FFF79DFC10BDB1
:100B50002A49086070472949091F086070472749DA
:100B600084310860704701460020254A10884FF6FE
:100B70007F4210400843224A1080704701460020FF
:100B80001F4A10884FF68072104008431C4A10809C
:100B9000704708B500220092194A2C3A0092009A38
:100BA00002440092009A116008BD08B50146002079
:100BB000009013482C38009000980844009000984A
:100BC000008808BD0D489C300068C0B270470C48D2
:100BD0000830008840F0010009490831088070475A
:100BE0000648A0300068C0B2704705480830008849
:100BF00040F00200024908310880704704860D4227
:100C00002C6C0040002044490860091D0860091D43
:100C10000860091D086041483F4914310860704769
:100C200000213D498279002A3AD00A4612680368B9
:100C30009A430B461A600A1D126803689A430B1DFB
:100C40001A60027911440A6803681A430A60324A3A
:100C50000832126803689A432F4B08331A601A1D32
:100C6000126803689A432C4B0C331A604279102A9D
:100C70000ED11A1F126803681A43274B08331A60F3
:100C80001A1D126803681A43234B0C331A600DE0D7
:100C90002149427911440A6803681A430A6005E051
:100CA000027911440A6803689A430A607047002178
:100CB000016001710C214171002181717047164959
:100CC000103109680143144A10321160704701461F
:100CD0000020114A143212680A400AB1012000E0D3
:100CE000002070470C49143108607047014600200D
:100CF0000022094B1B6803EA0102074B14331B68EF
:100D00000B4013B10AB1012000E0002070470249F6
:100D1000143108607047000000040140FFFF0F001D
:100D200030B943F2DB028100A1F1C0410A6005E065
:100D300043F2D2028100A1F1C0410A606FF070421B
:100D4000411C8900A1F1C0410A608100A1F1C041AC
:100D5000C1F80421704710280AD118214FF0204211
:100D60001166402151664FF0FC319166D16610E06A
:100D70001821F74A116040214FF02042C2F8841038
:100D80004FF0FC31F24A083211604FF02042C2F8B5
:100D90008C1070471820EE492031086000200906A9
:100DA000C1F8A4004FF0FC30E94928310860091D62
:100DB0000860091D08607047D0E901121143C2683C
:100DC0001143026911434269114382691143C269A7
:100DD0001143026A1143426A1143826A1143C26A93
:100DE0001143026B114302689200A2F1C0421160EC
:100DF000816808290BD101688900A1F1C041096807
:100E000041F0400201688900A1F1C0410A60416BD4
:100E10000968426B526841EA0211426B926841EAEA
:100E20000221426B928941EA0241426B128A41EAF5
:100E30000251426B127D41EA0261426B9269114399
:100E40000268521C9200A2F1C0421160C16AB1F561
:100E5000804F1BD1816B0968826B526841EA021195
:100E6000826B926841EA0221826B128A41EA025146
:100E7000826B127D41EA0261826B926911430268C2
:100E80009200A2F1C042C2F8041107E06FF0704274
:100E900001688900A1F1C041C1F80421704730B553
:100EA000002100220023446844F0080485682C4394
:100EB000C5682C4305692C43456944EA4524856986
:100EC00044EA4531C4692468C5696D6844EA05246B
:100ED000C5692D8944EA0544C5692D7B44EA05624C
:100EE000046A2468056A6D6844EA0524056A2D8948
:100EF00044EA0544056A2D7B44EA05630468102C26
:100F000005D14FF020442166A266E36608E0904CCC
:100F100021604FF02044C4F888208D4C0C342360AD
:100F200030BD016841F01001426841EA4221826807
:100F300041EA4231864A20321160C1680968C268BC
:100F4000526841EA0221C268128941EA0241C2683C
:100F5000127B41EA02617E4A283211600169096808
:100F60000269526841EA02210269128941EA02419A
:100F70000269127B41EA0261754A2C3211604169B3
:100F800009684269526841EA02214269128941EACC
:100F900002414269127B41EA02614FF02042C2F8ED
:100FA000B010704700210160022141600021816082
:100FB000C160016141618161C16101624FF4805191
:100FC0004162490081620021C16201630F21426BCD
:100FD0001160426B5160FF21426B91600F21426BA7
:100FE000D160426B1161426B51610021426B916192
:100FF0000F21826B1160826B5160FF21826B9160C7
:101000000F21826BD160826B1161826B5161002173
:10101000826B916170471021016000214160816005
:10102000C160016141618161FC21C2691160C269D5
:101030005160C2699160C269D160026A1160026A3E
:101040005160026A9160026AD160704700210160BC
:1010500041608160FC21C2681160C2685160C26851
:101060009160C268D16002691160026951600269D1
:1010700091600269D16042691160426951604269C0
:1010800091604269D160704751B18200A2F1C042C3
:10109000126842F001038200A2F1C042136009E02D
:1010A0008200A2F1C04212682A4B1A408300A3F1C9
:1010B000C0431A60704799B1102808D14FF0204200
:1010C000126E42F004024FF020431A661DE0204ADF
:1010D000126842F004024FF02043C3F8802014E06D
:1010E000102809D14FF02042126E1A4BDB1E1A4015
:1010F0004FF020431A6608E0154A1268154BDB1EB4
:101100001A404FF02043C3F88020704748B110497F
:101110002031096841F004014FF02042C2F8A010CC
:1011200009E00B49203109680A4AD21E11404FF0EC
:101130002042C2F8A0107047B9B110280CD14FF06E
:101140002042126E42F040024FF020431A661FE028
:10115000800000A0FEFF0F00724A126842F04002B9
:101160004FF02043C3F8802012E0102808D14FF040
:101170002042126E6C4B1A404FF020431A6607E073
:10118000684A1268684B1A404FF02043C3F8802029
:10119000704701460020102903D14FF02042506FC4
:1011A00002E0604A14321068704710B5F2B110289E
:1011B00007D14FF020435B6E0B434FF02044636632
:1011C00032E0B0F5807F08D1564B1B1D1B680B43E6
:1011D0004FF02044C4F8843026E0524B24331B687F
:1011E0000B434FF02044C4F8A4301DE0102807D171
:1011F0004FF020435B6E8B434FF02044636613E057
:10120000B0F5807F08D1474B1B1D1B688B434FF007
:101210002044C4F8843007E0424B24331B688B43DE
:101220004FF02044C4F8A43010BD10B50246002091
:101230000023102A03D14FF02044636E09E0B2F579
:10124000807F03D1374C241D236802E0354C2434C1
:10125000236803EA01040CB1012000E0002010BD66
:10126000102807D14FF02042526E8A434FF020439E
:101270005A6613E0B0F5807F08D12A4A121D126821
:101280008A434FF02043C3F8842007E0254A2432E4
:1012900012688A434FF02043C3F8A420704770B50A
:1012A00002460020002300240025102A03D14FF01D
:1012B0002046736E09E0B2F5807F03D1194E361DCA
:1012C000336802E0174E2436336803EA010403EA68
:1012D000D10514B10DB1012000E0002070BD10282F
:1012E00008D14FF02042526E22EAD1024FF0204343
:1012F0005A6615E0B0F5807F09D10A4A121D1268BE
:1013000022EAD1024FF02043C3F8842008E0054AC6
:101310002432126822EAD1024FF02043C3F8A420FD
:1013200070470000800000A0BFFF0F0010B5012132
:101330000807FFF79CF800214FF08050FFF797F85F
:1013400010BD2A4908627047284908617047014664
:101350000020274A106820F0E00008431060704722
:101360002249A0310860704710B502460020204B8A
:10137000186820F00300104318601E4B1B6843F0F0
:1013800004031C4C2360012901D130BF00E020BFC1
:10139000184B1B6823F00403164C236010BD14483F
:1013A000006840F00400124908600846006840F0F8
:1013B000020008600F48006840F004000D49086012
:1013C00000BF00BF30BF704701460020084A526886
:1013D0000A400AB1012000E0002070470449096872
:1013E00041EA8001024A11607047000000000E428D
:1013F0000070004010ED00E029B1504A128802430D
:101400004E4B1A8004E04D4A128882434B4B1A809F
:1014100070474A48001D008840F010004749091DE8
:10142000088070474548001D00884FF6EF7108405E
:101430004249091D08807047002140481C3001883E
:10144000001F008841EA0040704700B50246FFF7E0
:10145000E0FF100C394918310880091D0A80FFF798
:10146000E1FF00BD00B50246FFF7D3FFC2F3034022
:10147000324908310880091D0A80FFF7D3FF00BDFB
:1014800000B50246FFF7C5FF100C2C49203108803B
:10149000091D0A80FFF7C6FF00BD00202749103153
:1014A00009880907080B2549143109880843704742
:1014B00000BF2248001D008800F020000028F8D05E
:1014C00070471E48001D00884FF6F77108401B4901
:1014D000091D088000BF1948001D008800F00800A1
:1014E0000028F8D0704701460020144A121D1288C7
:1014F0000A400AB1012000E0002070470F49091D91
:10150000098881430D4A121D118070470146002051
:101510000A4A121D12880A40D0B2084A12880A40AC
:1015200012B108B1012000E0002070470349091DF5
:1015300009888143014A121D11807047002800402C
:1015400010B50446FB48844209D101218803FEF707
:1015500081FF00214FF48040FEF77CFF32E0F64827
:10156000844209D101214804FEF781FF00214FF494
:101570000030FEF77CFF25E0F048844209D10121CC
:101580008804FEF774FF00214FF48020FEF76FFF00
:1015900018E0EB48844209D10121C804FEF767FF37
:1015A00000214FF40020FEF762FF0BE0E548844283
:1015B00008D101210805FEF75AFF00214FF48010E1
:1015C000FEF755FF10BD2DE9F04786B005460E46E3
:1015D0000024A24600BFA1460027B08900B100BF89
:1015E0002F462C8A4CF6FF700440F08804432C826E
:1015F000AC894EF6F3100440B088318908437189F4
:1016000008430443AC81AC8A4FF6FF400440B089E4
:101610000443AC8201A8FEF796FEC648874202D179
:10162000DDF810A001E0DDF80CA0A88900F400406E
:1016300040B10AEBCA0000EB0A1031684900B0FB68
:10164000F1F807E00AEBCA0000EB0A1031688900E4
:10165000B0FBF1F86420B8FBF0F00401200964212C
:1016600001FB1089A88900F4004040B1322000EB52
:10167000C900B0FBF1F000F00700044308E032209D
:1016800000EB09106421B0FBF1F000F00F000443FF
:101690002C8106B0BDE8F0874FF41651016000219F
:1016A0008180C18001810C214181002181817047AD
:1016B00010B502460020108A4FF2FF0318400B8835
:1016C0004C8823438C882343CC88234318431082BF
:1016D00010BD0021018041808180C180704721B10F
:1016E000828942F40052828104E082894DF6FF73C0
:1016F0001A4082817047F0B5034600240026002579
:10170000002040F66A17B94200D100BF1846C1F365
:10171000421401F01F06012707FA06F5012C01D13A
:101720000C3004E0022C01D1103000E014301AB16A
:1017300007682F43076002E00768AF430760F0BD0A
:101740001AB1838A0B43838202E0838A8B438382AC
:101750007047028A4FF6F0731A400282028A0A43E7
:101760000282704782894FF2FF731A408281828918
:101770000A438281704721B1828942F0020282814C
:1017800004E082894FF6FD731A4082817047028A15
:101790004FF6DF731A400282028A0A4302827047C0
:1017A00021B1028A42F48042028204E0028A4BF6AE
:1017B000FF731A4002827047C1F3080282807047AB
:1017C00001468888C0F308007047818941F0010113
:1017D00081817047028BD2B20283028B42EA0122DE
:1017E00002837047028B02F47F420283028B0A431A
:1017F0000283704721B1828A42F02002828204E093
:10180000828A4FF6DF731A408282704721B1828A42
:1018100042F01002828204E0828A4FF6EF731A408F
:101820008282704721B1828A42F00802828204E0FB
:10183000828A4FF6F7731A408282704721B18289FB
:1018400042F40042828103E08289C2F30E02828167
:10185000704721B1828A42F40062828204E0828A67
:101860004FF2FF731A4082827047828A4FF6FB73F1
:101870001A408282828A0A438282704721B1828A18
:1018800042F00202828204E0828A4FF6FD731A401F
:101890008282704702460020B1F5007F00D100BF70
:1018A00013880B400BB1012000E00020704701F4C9
:1018B0000072B2F5007F00D100BFCA4302807047BA
:1018C00070B50246002400230025002040F66A1669
:1018D000B14200D100BFC1F3421501F01F03012640
:1018E00006FA03F3012D02D19689334006E0022D5A
:1018F00002D1168A334001E0968A33400C12012649
:1019000006FA04F41688344013B10CB1012000E04B
:10191000002070BD10B50022002340F66A14A142D9
:1019200000D100BF0A1201249440A3B2DC4304801A
:1019300010BD000000380140004400400048004055
:10194000004C004000500040014601224FF0E023CF
:101950001A6101EBC1025A6100229A6100BF4FF087
:10196000E022106900F001021AB100F48032002A6E
:10197000F5D000224FF0E0231A619A6170470146CA
:1019800001224FF0E0231A6142F228324A435A61A1
:1019900000229A6100BF4FF0E022106900F00102BE
:1019A0001AB100F48032002AF5D000224FF0E02373
:1019B0001A619A61704700001FB54FF4E0114FF4AF
:1019C000403001F0F1FA4FF4E13001F027FB00F074
:1019D00027FA002000F002FA00204FF4784132A2EA
:1019E0001823CDE90032CDE902104FF4E4720A2148
:1019F000084600F0E5FF00201F2130A20C23CDE9AE
:101A00000032CDE902101823A8224FF4B4719620B9
:101A100000F0D6FF00201F212CA20C23CDE90032BC
:101A2000CDE902101823782240F27711AA2000F0A5
:101A3000C7FF01F0D8F935E04FF6E07001F0E1FCA6
:101A40002548007898B100202349087001F0D6FF9E
:101A500001F0F5F84FF6E07001F0D3FC4FF4784355
:101A60000822E621782000F007FD01F0F0FC4FF697
:101A7000E07001F06DFB4FF6E0706E236422E6210A
:101A80000090782001F04EFB4FF478437622E62157
:101A9000782000F0F1FC4FF478430822E62178200A
:101AA00000F0EAFCC8E7000054484953204953209D
:101AB000412052544320434C4F434B0044657369CB
:101AC000676E2062792077696C6C000032303138A3
:101AD0002E30372E31350000360000201FB5012191
:101AE0005420FEF79DFC01210846FEF799FC0120D9
:101AF000ADF80C008DF80E0028208DF80F0003A91A
:101B00002848FEF753FE4FF6FF70ADF80C00012099
:101B10008DF80E0010208DF80F0003A92248FEF763
:101B200045FEFF212048FEF7F7FE4FF4C060FEF7A8
:101B300099FF06208DF8080000208DF8090002208A
:101B40008DF80A0001208DF80B0002A8FEF78FFF28
:101B500000210846FEF740FF0120009000208DF88C
:101B6000040008208DF8050001208DF80600684665
:101B7000FFF756F81FBD10B50120FFF7A8F80128A0
:101B80000FD10A20FFF7FBFE01210648FEF7A1FE58
:101B9000012803D1FE210448FEF7BEFE0120FFF715
:101BA000B6F810BD000801400010014008B5012141
:101BB0004FF4B070FEF734FC4CF23370ADF8000017
:101BC00018208DF8030003208DF802006946FE48B6
:101BD000FEF7ECFD4FF68070ADF8000018208DF890
:101BE000030003208DF802006946F848FEF7DEFD89
:101BF00041F20100ADF8000018208DF80300032029
:101C00008DF802006946F248FEF7D0FD08BD00B528
:101C10009DB001210802FEF7F6FB0120079000208D
:101C200008900F20099000200A900B900C900D90C6
:101C300000900190032002900020039004900590F2
:101C4000069006200E9000200F901090102011900A
:101C50000020129014901390159016904FF480501D
:101C60001790002018904FF48040199000201A908F
:101C700007A81B90CDF870D00EA8FFF79DF80121A2
:101C80000620FFF701FA1DB000BDD2490880704759
:101C9000D049891C0880704700B503460A4618469B
:101CA000FFF7F3FF1046FFF7F3FF00BDC949891C9A
:101CB00008807047C748801C0088704700B50246FE
:101CC000B2B90120FFF7E1FF4FF48070FFF7E0FFAA
:101CD0000320FFF7DAFF41F23000FFF7D9FF4FF49E
:101CE000C870BD494880F02008800020887114E049
:101CF0000120FFF7CAFF0020FFF7CAFF0320FFF70C
:101D0000C4FF41F23800FFF7C3FFF020B24948801A
:101D10004FF4C87008800120887100BD30B50546B9
:101D20000C46AD48807950BB4FF40470FFF7ADFF0F
:101D30002846FFF7ADFF40F21120FFF7A6FF10463F
:101D4000FFF7A6FF40F21220FFF79FFF2046FFF7A4
:101D50009FFF40F21320FFF798FF1846FFF798FF08
:101D60004FF40070FFF791FF2846FFF791FF40F214
:101D70000120FFF78AFF2046FFF78AFF29E040F2A3
:101D80001220FFF782FF2846FFF782FF40F2132060
:101D9000FFF77BFF1046FFF77BFF4FF40470FFF760
:101DA00074FF2046FFF774FF40F21120FFF76DFF2C
:101DB0001846FFF76DFF40F20120FFF766FF284647
:101DC000FFF766FF4FF40070FFF75FFF2046FFF755
:101DD0005FFF40F20220FFF758FF30BD70B50646A6
:101DE0007D484088401E83B27B480088401E82B2F6
:101DF00000210846FFF792FF00240CE0002504E0D4
:101E00003046FFF753FF681C85B273484088A842EC
:101E1000F6DC601C84B270480088A042EEDC70BD25
:101E200010B5FFF7C3FEFFF7F2FE3220FFF7A7FD64
:101E30000020FFF72AFFFFF73DFF6749888008462B
:101E4000818866A002F0CEFB0020FFF71EFF002075
:101E5000FFF71EFF0020FFF718FF0020FFF718FF15
:101E60000020FFF712FF0020FFF712FF4FF4806001
:101E7000FFF70BFF4FF4C440FFF70AFF0820FFF7FE
:101E800004FF40F60800FFF703FF0120FFF7FDFE07
:101E90004FF48070FFF7FCFE0220FFF7F6FE4FF4D0
:101EA0008070FFF7F5FE0320FFF7EFFE41F23000F0
:101EB000FFF7EEFE0820FFF7E8FE40F60800FFF708
:101EC000E7FE4FF44070FFF7E0FE0C20FFF7E0FE66
:101ED00040F20130FFF7D9FE45F60B20FFF7D8FEA0
:101EE00040F20230FFF7D1FE40F60610FFF7D0FEB9
:101EF00040F20330FFF7C9FE41F21700FFF7C8FEBA
:101F00004FF44170FFF7C1FE4FF40C50FFF7C0FED5
:101F100040F20530FFF7B9FE4FF4B850FFF7B8FEB6
:101F200040F20630FFF7B1FE46F20930FFF7B0FE8F
:101F300040F20730FFF7A9FE40F60940FFF7A8FE80
:101F40004FF44270FFF7A1FE41F20C00FFF7A0FE34
:101F500040F20930FFF799FE42F23220FFF798FE77
:101F60001020FFF792FE1420FFF792FE1120FFF7DA
:101F70008CFE40F20110FFF78BFE4FF48070FFF7EC
:101F800084FE4FF40C70FFF783FE3220FFF7F7FC5E
:101F900040F20110FFF779FE40F24720FFF778FE8C
:101FA0004FF4FA7401E0601E84B2002CFBDC322096
:101FB000FFF7E5FC40F20310FFF767FE4FF42060E7
:101FC000FFF766FE12E00000001401400018014017
:101FD00000200140FE07006C2C000020204C4344F0
:101FE0002049443A25780D0A000000004FF4FA74A5
:101FF00001E0601E84B2002CFBDC0A20FFF7BFFC6E
:102000004FF42070FFF741FE4FF2FF00FFF740FE54
:102010003220FFF7B4FC4FF4FA7401E0601E84B282
:10202000002CFBDC4FF48170FFF72FFE4BF2B01059
:10203000FFF72EFE4FF4FA7401E0601E84B2002C0C
:10204000FBDC3220FFF79BFC4FF40470FFF71DFE12
:102050000020FFF71DFE40F21120FFF716FEEF20D3
:10206000FFF716FE40F21220FFF70FFE0020FFF7E9
:102070000FFE40F21320FFF708FE40F28F10FFF72B
:1020800007FE4FF40070FFF700FE0020FFF700FE90
:1020900040F20120FFF7F9FD0020FFF7F9FD40F2C3
:1020A0000140FFF7F2FD0020FFF7F2FD0720FFF7E8
:1020B000ECFD4FF48070FFF7EBFD4FF4FA7401E094
:1020C000601E84B2002CFBDC3220FFF758FC40F28B
:1020D0000220FFF7DAFD0020FFF7F0FD4FF6FF705A
:1020E000FFF77CFE10BD2DE9F04304460D46164671
:1020F0001F46DDF81C80B44201DCBD4201DDBDE8B5
:10210000F083781E83B2701E82B229462046FFF704
:1021100005FE301B401C84B2781B401C85B20BE0CE
:10212000A94602E04046FFF7C1FD5FEA0900A9F1B8
:1021300001011FFA81F9F5D12000A4F101018CB24F
:10214000EED100BFDBE730B504460D462B462246F4
:1021500029462046FFF7E2FDFE480088FFF7A6FD6E
:1021600030BD70B504460D4616462B46224629461C
:102170002046FFF7D3FD3046FFF798FD70BD70B5E0
:1021800004460D460026F4480088A04203DDF248CC
:102190004088A84201DC002070BD2B46224629461B
:1021A0002046FFF7BBFD40F20220FFF76EFDFFF770
:1021B00081FD0646FFF77EFD0646FFF77BFD0646DE
:1021C0003046E9E72DE9FF4F84B081468A4600207A
:1021D000039002900698A0EB09050798A0EB0A0669
:1021E000CDF80490CDF800A0002D01DD012705E019
:1021F0000DB9002702E04FF0FF376D42002E02DDDF
:102200004FF0010806E016B94FF0000802E04FF069
:10221000FF387642B54201DD2C4600E034464FF0EF
:10222000000B21E0009A91B2019A90B2FFF78BFF68
:102230000398284403900298304402900398A042E7
:1022400005DD0398001B0390019838440190029823
:10225000A04205DD0298001B0290009840440090C7
:102260000BF101001FFA80FB601C8345DADD08B02A
:10227000BDE8F08F2DE9FF4F84B081468A460020EB
:10228000029083460698A0EB09050798A0EB0A0682
:10229000CDF80490CDF800A0002D01DD012705E068
:1022A0000DB9002702E04FF0FF376D42002E02DD2E
:1022B0004FF0010806E016B94FF0000802E04FF0B9
:1022C000FF387642B54201DD2C4600E0344600205E
:1022D00003901EE0009A91B2019A90B2119AFFF712
:1022E00040FF029828440290B3440298A04205DDC2
:1022F0000298001B0290019838440190A34504DD28
:10230000ABEB040B0098404400900398401C80B253
:102310000390611C03988842DCDD08B0BDE8F08FB3
:10232000F0B504460D46174605F1010C1FFA8CF373
:1023300004F1010C1FFA8CF2A5F1010C1FFA8CF1CB
:10234000A4F1010C1FFA8CF0FFF7E8FC002604E072
:102350003846FFF7ABFC701CC6B2092EF8DB211D16
:102360008AB2211F88B22B462946FFF7D7FC0026E8
:1023700004E03846FFF79AFC701CC6B2092EF8DB61
:10238000281D83B2281F81B222462046FFF7C6FCD3
:10239000002604E03846FFF789FC701CC6B2092EFF
:1023A000F8DBF0BDF0B504460D4616461F462B4639
:1023B000324629462046FFF705FF3B46224629467E
:1023C0002046FFF7FFFE3B46324639462046FFF7E0
:1023D000F9FE3B46324629463046FFF7F3FEF0BD94
:1023E0002DE9F04306460F4690460024454603205B
:1023F000A0EB48093CE07A1B91B2321990B2FFF78A
:10240000A2FE3A1B91B2721990B2FFF79CFE3A19E4
:1024100091B2721990B2FFF796FE7A1991B2321901
:1024200090B2FFF790FE7A1991B2321B90B2FFF78B
:102430008AFE3A1991B2721B90B2FFF784FE7A1BA2
:1024400091B2321B90B2FFF77EFE3A1B91B2721B23
:1024500090B2FFF778FE641CB9F1000F03DAA00018
:10246000801D814404E0601B80000A3081446D1EA1
:10247000AC42C0DDBDE8F0832DE9F04706460F46CB
:1024800090469A46002445460320A0EB480944E0C4
:102490007A1B91B2321990B25246FFF762FE3A1B94
:1024A00091B2721990B25246FFF75BFE3A1991B29F
:1024B000721990B25246FFF754FE7A1991B232194E
:1024C00090B25246FFF74DFE7A1991B2321B90B28C
:1024D0005246FFF746FE3A1991B2721B90B252462D
:1024E000FFF73FFE7A1B91B2321B90B25246FFF7C4
:1024F00038FE3A1B91B2721B90B25246FFF731FE82
:10250000641CB9F1000F03DAA000801D814404E0CF
:10251000601B80000A3081446D1EAC42B8DDBDE80E
:10252000F0872DE9F84F80460E4617461C46B34605
:102530002046E31704EB5373DB1021464FEAE47C9B
:1025400004EB5C7C4FEAEC0CA4EBCC0CBCF1000F70
:1025500007D003E0280000202C0000204FF0010CE1
:1025600001E04FF0000C6344224604EBD27C4FEABA
:102570006C0C03FB0CF3DBB20093A7F12000C7B295
:10258000002556E00C2C07D107EB4700F94901EB79
:10259000800010F8059013E0102C05D1F64800EBF0
:1025A000071010F805900BE0182C07D107EBC700B7
:1025B000F24901EB800010F8059001E0BDE8F88FCA
:1025C0004FF0000A2FE009F0800030B1EC4802889B
:1025D00031464046FFF7C5FD07E00A9828B9E948AB
:1025E000028831464046FFF7BCFD4FEA49604FEA9A
:1025F0001069701C86B2E4484088B04200DCDDE718
:10260000A6EB0B00A0420AD15E4608F101001FFABA
:1026100080F8DD480088404500DCCFE706E00AF19D
:10262000010000F0FF0ABAF1080FCCDB00BF681C04
:10263000C5B200988542A5DB00BFBFE72DE9F84F82
:1026400080460E4617461C46B3462046E31704EB69
:102650005373DB1021464FEAE47C04EB5C7C4FEAC9
:10266000EC0CA4EBCC0CBCF1000F02D04FF0010C31
:1026700001E04FF0000C6344224604EBD27C4FEAA9
:102680006C0C03FB0CF3DBB20093A7F12000C7B284
:10269000002554E00C2C07D107EB4700B54901EBAE
:1026A000800010F8059013E0102C05D1B24800EB23
:1026B000071010F805900BE0182C07D107EBC700A6
:1026C000AE4901EB800010F8059001E0BDE8F88FFD
:1026D0004FF0000A2DE009F0800028B13146404655
:1026E0000B9AFFF73EFD06E00A9820B931464046B6
:1026F0000C9AFFF736FD4FEA49604FEA1069701CEB
:1027000086B2A1484088B04200DCDFE7A6EB0B00B0
:10271000A0420AD15E4608F101001FFA80F89A48EB
:102720000088404500DCD1E706E00AF1010000F036
:10273000FF0ABAF1080FCEDB00BF681CC5B20098D3
:102740008542A7DB00BFC1E710B50246012000E0CB
:1027500050430B00A1F10104E1B2F9D110BD2DE904
:10276000FF4F81B0074691461E460E9D4FF0000A6E
:10277000002439E0301B401EC1B20A20FFF7E4FFFD
:10278000B9FBF0F00A21B0FBF1F201FB1208BAF13B
:10279000000F16D1701EA04213DDB8F1000F0ED14C
:1027A0000020AB4605EBDB71491001FB0471009082
:1027B00088B22B4620220299FFF7B3FE12E04FF0B9
:1027C000010A0020AB4605EBDB71491001FB0471E7
:1027D000009088B208F13001CAB22B460299FFF787
:1027E000A0FE00BF601CC4B2B442C3DB05B0BDE8AC
:1027F000F08F2DE9FF4F87B0814692461D46149E0B
:102800002C4637E0601E01F045FD07463A460B4670
:1028100000205E4902F0E8FCCDE90201504601F0DB
:102820004AFDCDE90001DDE9022301F0C4FCCDE958
:10283000040101F04DFD80B20A2190FBF1F201FB91
:1028400012001FFA80FB0022DDE916103746CDE9A1
:102850000021029006EBD77149102B1B01FB03915D
:1028600088B20BF13001CAB233460899FFF7E6FE91
:10287000601EC4B2002CC5DC0BB0BDE8F08F2DE9A2
:10288000FF4F82B0064692461F46DDE90F48002002
:10289000019000254DE0781B401EC1B20A20FFF7D1
:1028A00053FFBAFBF0F00A21B0FBF1F201FB120971
:1028B000019850BB781EA84227DDB9F1000F22D144
:1028C00008F0800078B108F00100A34604EBDB714A
:1028D000491001FB0561009088B22346302203991C
:1028E000FFF71FFE0EE008F00100A34604EBDB71CA
:1028F000491001FB0561009088B22346202203990C
:10290000FFF70FFE13E00120019008F00100A3463D
:1029100004EBDB71491001FB0561009088B209F1FD
:102920003001CAB223460399FFF7FBFD00BF681CC4
:10293000C5B2BD42AFDB06B0BDE8F08F2DE9F84768
:1029400004460D4690469946DDE9096704F0FF0A02
:1029500008EB04001FFA80F809EB05001FFA80F964
:1029600025E0444502DB5446A81985B24D450FDBEE
:1029700023E00000A45C0008186100080867000854
:10298000280000202A0000202C0000200000244005
:10299000002000903A78334629462046FFF7C1FDD3
:1029A000304606EBD07104EB61018CB27F1C3878A5
:1029B0007E2802DC38782028D3DA00BFBDE8F8870B
:1029C0002DE9FF4F04460D46904699460DAE96E818
:1029D000C00CE0B2039008EB04001FFA80F809EB8A
:1029E00005001FFA80F917E0444502DB039CA81993
:1029F00085B24D4500DB15E000208DE8010C3A78EA
:102A0000334629462046FFF719FE304606EBD071C3
:102A100004EB61018CB27F1C38787E2802DC3878A8
:102A20002028E1DA00BFBDE8FF8F2DE9F84F04460A
:102A30000F461546A346009760E0002657E006EBD8
:102A40008600C0EB8610474911F8100029788842AB
:102A50004BD106EB8600C0EB8610424901EB4000EB
:102A600040786978884240D14FF000083AE006EBA0
:102A70008600C0EB86103B4901EB4000801C10F83B
:102A800008A04FF0000926E00AF08000802806D157
:102A90003548028839462046FFF763FB05E0334896
:102AA000028839462046FFF75CFB4FF6FF7000EACC
:102AB0004A0A601C84B2A4EB0B00202807D15C46B4
:102AC000781C87B20098381A1D2800D1009F09F1A0
:102AD000010000F0FF09B9F1080FD5DB08F1010092
:102AE00000F0FF08B8F1740FC1DB701CC6B2142EE1
:102AF000A5DBAD1C04F1200084B2A3462878002891
:102B00009BD1BDE8F88F2DE9F04F804689461546E8
:102B10001E46DDF824A000270024A34609EB06008A
:102B2000401E83B208EB0500401E82B24946404673
:102B3000FFF7F4F805FB06F04FEA400B00BF601CFE
:102B40001AF800704FF6FF7000EA07271AF8040021
:102B500007433846FFF7AAF8A41C5C45EFDBBDE845
:102B6000F08F000064740008280000202A00002074
:102B700008B503208DF8000000208DF801008DF8C5
:102B8000020001208DF803006846FDF770FF08BDC4
:102B9000F0B503460C461546642093FBF0F0C6B230
:102BA000642093FBF0F700FB1730C1B2132E02DD57
:102BB00001F16400C1B20846CF1701EB977701EB32
:102BC000A707BAB2072092FBF0F700FB172082B2EA
:102BD0005719601EDFF8B0C31CF80000384482B2F9
:102BE000CF1701EB9777BF10A1EB87071FB9032C15
:102BF00001DA501E82B2072092FBF0F700FB17208B
:102C0000C0B2F0BD0146CA1701EB92729210A1EB5F
:102C1000820292B9642091FBF0F200FB121050B9CD
:102C20004FF4C87091FBF0F200FB121008B90120BC
:102C300070470020FCE70120FAE70020F8E770B5B4
:102C4000002600240025FEF7F7FB0646CF48B6FB1A
:102C5000F0F4CF480088A0423CD0CD490C8040F22F
:102C6000B27510E02846FFF7CDFF40B1B4F5B77F4D
:102C700002D3A4F5B77404E0681C85B206E0A4F2A0
:102C80006D14681C85B2B4F5B67FEBD800BFC1489F
:102C90008580002516E0BF498888FFF7B3FF30B173
:102CA000012D04D11D2C01D31D3C09E00CE0BA48D4
:102CB000405DA04203D8B848405D241A00E003E01C
:102CC000681C85B21C2CE6D200BF681CB149887113
:102CD000601CC871AD48B6FBF0F100FB11644FF405
:102CE0006160B4FBF0F0AB4908704FF46160B4FB75
:102CF000F0F100FB11403C21B0FBF1F0A549487018
:102D00004FF46160B4FBF0F100FB11403C21B0FBDB
:102D1000F1F201FB12009F4988700B46DA7999792C
:102D20009888FFF735FF9B490872002070BD2DE998
:102D3000F05F06460F4690469946DDE90AAB00244F
:102D400040F2B270864203DB40F63300864202DD79
:102D50000120BDE8F09F40F2B2750AE02846FFF777
:102D600051FF10B18D48044401E08D480444681CB3
:102D700085B2B542F2DB781EC7B2002510E0864866
:102D8000405D40F2A321484304EBC0143046FFF7F6
:102D900039FF18B1012D01D17C480444681C85B26B
:102DA000BD42ECDBA8F1010040F2A321484304EB53
:102DB000C014C9EB4910C0EB092004EB0014CAEBA6
:102DC0000A1004EB80045C4401214FF0C050FDF771
:102DD00034FB0120FEF7B5FA2046FEF736FBFEF77E
:102DE00067FB0020B5E71CB5002401214FF0C0505F
:102DF000FDF723FB0120FEF7A4FA0420FDF7D5FE22
:102E00004AF2A001884240D0FDF79AFE0120FDF76A
:102E100074FA04E0601CC4B20A20FEF7B0FD412041
:102E2000FDF7D3F908B9FA2CF4DBFA2C01DB012009
:102E30001CBD4FF48070FDF77CFA0120FDF77FFA8E
:102E4000FEF736FBFEF73DFB01210320FEF7D4FA27
:102E5000FEF72EFBFEF7DDFA47F6FF70FEF702FBEA
:102E6000FEF726FB39200D210C231522CDE9001099
:102E7000072140F2E170FFF75AFFFEF7D3FA4AF25A
:102E8000A0010420FDF785FE07E0FEF71AFB0121F3
:102E90000846FEF7B1FAFEF70BFBFFF769FEFFF7F6
:102EA000CEFE0020C4E72DE9F05F06460F469046AF
:102EB0009946DDE90AAB002440F2B270864203DB9A
:102EC00040F63300864202DD0120BDE8F09F40F26B
:102ED000B2750AE02846FFF795FE10B12F4804446A
:102EE00001E02F480444681C85B2B542F2DB781E2D
:102EF000C7B2002510E02848405D40F2A3214843B6
:102F000004EBC0143046FFF77DFE18B1012D01D14E
:102F10001E480444681C85B2BD42ECDBA8F10100E8
:102F200040F2A321484304EBC014C9EB4910C0EBA5
:102F3000092004EB0014CAEB0A1004EB80045C4483
:102F400001214FF0C050FDF778FA0120FEF7F9F9A2
:102F50002046FEF795FAFEF7ABFA0020B5E710B56C
:102F60000120FEF7D3FA10B101200E4908700220AB
:102F7000FEF7CCFA10B10220FEF7D8FA0520FEF7D2
:102F8000D5FAFEF795FA10BD8C5C0008805101005F
:102F90003400002040000020985C00080085E20119
:102FA0008033E1013600002070B504460D46FDF780
:102FB000C9F84FF48030FDF7E5F8FDF722F9012854
:102FC0001BD129462046FDF745F90120FDF74EF9B2
:102FD0003920FDF7FAF80220FDF74BF900BFFDF7A5
:102FE00051F90828FBD10020FDF751F94FF480601A
:102FF000FDF756F90020FDF75CF970BD70B5044689
:103000000D46E1B24548FEF7D7FB00BF802143489B
:10301000FEF740FC0028F9D0204670BD10B586B000
:10302000044601210820FDF7FBF901218804FDF782
:1030300004FA4FF48060ADF8140001208DF81600FA
:1030400018208DF8170005A93548FDF7AFFB4FF4A0
:103050000060ADF8140001208DF8160004208DF8F2
:10306000170005A92E48FDF7A1FB01940020ADF83B
:103070000800ADF80A00ADF80C00ADF810000C2007
:10308000ADF80E0001A92548FEF79DFA4FF4A060A7
:10309000FDF7E8FC27208DF8000003208DF80100E3
:1030A0008DF8020001208DF803006846FDF7DFFC73
:1030B00001211A48FEF713FB012240F2255117485F
:1030C000FEF719FB40F225511448FEF723FC40217E
:1030D0001248FEF7ECFB06B010BD10B500244021ED
:1030E0000E48FEF7E4FB40F225510C48FEF7E8FBE2
:1030F00098B140F225510948FEF70CFC0748FEF74D
:103100005FFBC4B221460548FEF756FB00BF4021D5
:103110000248FEF7BFFB0028F9D110BD004800406F
:10312000000C01402DE9F0470746884615461E462B
:10313000DDF820902C4607E04B46224641463846B3
:10314000FFF79AF9601CC4B2B442F5DBBDE8F08722
:103150002DE9F04F91B081462422FE4908A800F0E5
:10316000FFFE9DF82210FCA001F03CFA002442E191
:10317000204601F0A0F80746FD4AFE4B00F0A9FFEB
:10318000CDE9000101F0E2FF0022FB4BCDE9020195
:1031900000F09FFF82460022F84B00F097FF0546A3
:1031A00001F096F880B20790204601F084F80746B7
:1031B000EF4AF04B00F08DFF054602F0F1FC0022D3
:1031C000ED4BCDE9000100F084FF82460022EC4B7C
:1031D00000F0D8FECDE9020101F07AF880B2069045
:1031E000204601F068F88246E14AE24B00F071FFA8
:1031F000CDE9000101F0AAFF05460022E14B00F0F5
:1032000068FF07460022DD4B00F060FFCDE90201B8
:1032100001F05EF880B20590204601F04CF8D44AE7
:10322000D44BCDE9000100F054FF074602F0B8FC92
:1032300005460022D34B00F04CFF82460022D04BC3
:1032400000F0A0FECDE9020101F042F880B2CDF815
:103250000090049005A90EC9FFF70CF8052094FB17
:10326000F0F100FB114000287ED1204601F023F848
:103270000746BF4ABF4B00F02CFFCDE9000101F02B
:1032800065FF05460022BC4B00F023FF0022BB4B2C
:10329000CDE9020100F01AFF824601F019F880B270
:1032A0000790204601F007F80746B14AB14B00F0FD
:1032B00010FF054602F074FC0022AF4BCDE900017F
:1032C00000F007FF82460022AD4B00F05BFECDE927
:1032D000020100F0FDFF80B20690204600F0EBFFF7
:1032E0008246A34AA34B00F0F4FE074601F02EFFEE
:1032F00005460022A44B00F0ECFE00229F4BCDE9D6
:10330000000100F0E3FECDE9020100F0E1FF80B230
:103310000590204600F0CFFF8246954A954B00F07D
:10332000D8FECDE9000102F03BFC07460022964B97
:1033300000F0CFFE05460022914B00F023FECDE9C0
:10334000020100F0C5FF80B2CDF80090049005A9FD
:103350000EC9FEF78FFF052094FBF0F000EB400153
:1033600008A80844079000E043E0204600F0A3FFCF
:1033700005467F4A7F4B00F0ACFECDE9000101F02D
:10338000E5FE0022814BCDE9020100F0A2FE0746D6
:1033900000227F4B00F09AFE824600F099FF80B237
:1033A0000690204600F087FF0746714A714B00F0F7
:1033B00090FE824602F0F4FB0022744BCDE900013E
:1033C00000F087FE05460022724B00F0DBFDCDE9E0
:1033D000020100F07DFF80B2002105900C220798C9
:1033E0001346CDE90291CDE90020DDE90501FFF7A3
:1033F000E7FA601CC4B23C2CFFF6BAAE11B0BDE8CF
:10340000F08F10B58AB004466348807862494978E5
:10341000614A1278604BDB79CDE90032CDE90210C8
:103420005D48837982885DA105A801F0EBF8002052
:103430004FF6E07105AA1023CDE90032CDE9021064
:10344000982232212820FFF7BBFA0AB010BD00B540
:103450009BB0514880780B9000F02DFF444A454BBB
:10346000CDE90C0100F035FECDE90E0101F06EFE54
:103470000022524BCDE9100100F02BFE00223F4B01
:10348000CDE9120100F07EFDCDE9140100F020FF2E
:1034900080B21990404880780B9000F00CFF344ABD
:1034A000344BCDE90C0100F014FECDE90E0102F021
:1034B00077FB0022414BCDE9100100F00AFE00220B
:1034C0002F4BCDE9120100F001FECDE9140100F00F
:1034D000FFFE80B21890304880780B9000F0EBFE31
:1034E000234A244BCDE90C0100F0F3FDCDE90E0198
:1034F00001F02CFE0022234BCDE9100100F0E9FD84
:1035000000221E4BCDE9120100F0E0FDCDE91401CF
:1035100000F0DEFE80B217901F4880780B9000F01C
:10352000CAFE134A134BCDE90C0100F0D2FDCDE9E0
:103530000E0102F035FB0022124BCDE9100100F024
:10354000C8FD00220E4BCDE9120100F01BFDCDE9B4
:10355000140135E08C780008746865206368617236
:1035600061637465722069733A202563200D0A0037
:103570001A4E66F3E9CEBA3F0000594000C06C40D5
:1035800000005E400080564000405540000054401E
:1035900000606C4000405D404000002025303264F7
:1035A0002D253032642D2530326420253032643AA6
:1035B000253032643A253032640000000000344087
:1035C00000F086FE80B216904FF47840009016A866
:1035D0000FC8FEF74FFEFD488078059000F06BFEA7
:1035E0000022FB4BCDE9060100F0E5FDCDE90A0123
:1035F000F6484078079000F05EFECDE90801DDE96D
:103600000A2300F0BFFCF34AF34BCDE90C0100F0B4
:1036100060FDCDE90E0101F099FD0022EF4BCDE9EF
:10362000100100F056FD0022ED4BCDE9120100F033
:10363000A9FCCDE9140100F04BFE80B21990E348DB
:103640008078059000F037FE0022E14BCDE90601BD
:1036500000F0B1FDCDE90A01DC484078079000F0A8
:103660002AFECDE90801DDE90A2300F08BFCD94AE6
:10367000D94BCDE90C0100F02CFDCDE90E0102F093
:103680008FFA0022D54BCDE9100100F022FD002277
:10369000D44BCDE9120100F019FDCDE9140100F081
:1036A00017FE80B21890C9488078059000F003FE9C
:1036B0000022C74BCDE9060100F07DFDCDE90A01EE
:1036C000C2484078079000F0F6FDCDE90801DDE939
:1036D0000A2300F057FCBF4ABF4BCDE90C0100F0B4
:1036E000F8FCCDE90E0101F031FD0022B84BCDE927
:1036F000100100F0EEFC0022B94BCDE9120100F000
:10370000E5FCCDE9140100F0E3FD80B21790AF486D
:103710008078059000F0CFFD0022AD4BCDE9060189
:1037200000F049FDCDE90A01A8484078079000F073
:10373000C2FDCDE90801DDE90A2300F023FCA54A1A
:10374000A54BCDE90C0100F0C4FCCDE90E0102F05F
:1037500027FA00229E4BCDE9100100F0BAFC0022AE
:10376000A04BCDE9120100F00DFCCDE9140100F0F1
:10377000AFFD80B216901F20009016A80FC8FEF76C
:1037800079FD92488078059000F095FD0022964BD7
:10379000CDE9060100F00FFDCDE90A018B48407824
:1037A000019000F088FD0022894BCDE9020100F074
:1037B00002FDCDE9060185480078039000F07BFD0D
:1037C000CDE90401DDE9062300F0DCFBCDE90801C9
:1037D000DDE90A2300F0D6FB844A854BCDE90C01D4
:1037E00000F077FCCDE90E0101F0B0FC0022814B26
:1037F000CDE9100100F06DFC0022794BCDE91201FA
:1038000000F0C0FBCDE9140100F062FD80B2199018
:103810006E488078059000F04EFD0022724BCDE995
:10382000060100F0C8FCCDE90A0168484078019023
:1038300000F041FD0022664BCDE9020100F0BBFC27
:10384000CDE9060161480078039000F034FDCDE930
:103850000401DDE9062300F095FBCDE90801DDE96F
:103860000A2300F08FFB614A614BCDE90C0100F0A7
:1038700030FCCDE90E0102F093F900225D4BCDE959
:10388000100100F026FC0022564BCDE9120100F099
:103890001DFCCDE9140100F01BFD80B218904B48CF
:1038A0008078059000F007FD00224F4BCDE906011E
:1038B00000F081FCCDE90A0144484078019000F015
:1038C000FAFC0022424BCDE9020100F074FCCDE984
:1038D00006013E480078039000F0EDFCCDE90401BC
:1038E000DDE9062300F04EFBCDE90801DDE90A23FE
:1038F00000F048FB3D4A3E4BCDE90C0100F0E9FBEE
:10390000CDE90E0101F022FC00223B4BCDE9100174
:1039100000F0DFFB0022324BCDE9120100F0D6FBB4
:10392000CDE9140100F0D4FC80B2179027488078CC
:10393000059000F0C0FC00222B4BCDE9060100F001
:103940003AFCCDE90A0121484078019000F0B3FC2F
:1039500000221F4BCDE9020100F02DFCCDE906014C
:103960001A480078039000F0A6FCCDE90401DDE9D7
:10397000062300F007FBCDE90801DDE90A2300F08A
:1039800001FB1A4A1A4BCDE90C0100F0A2FBCDE96C
:103990000E0102F005F90022174BCDE9100100F0ED
:1039A00098FB00220F4BCDE9120100F0EBFACDE9B4
:1039B000140100F08DFC80B216904FF4FC60009072
:1039C00016A80FC8FEF756FC1BB000BD4000002033
:1039D00000004E401A4E66F3E9CEBA3F00002E407A
:1039E00000C06C4000005E400020AC40D0F01F38AA
:1039F00052C1E03F000024400000444000B59BB0AD
:103A0000FE4880780B9000F056FCFD4AFD4BCDE956
:103A10000C0100F05EFBCDE90E0101F097FB0022E6
:103A2000F94BCDE9100100F054FB0022F74BCDE932
:103A3000120100F0A7FACDE9140100F049FC80B2B0
:103A40001990EE4880780B9000F035FCEC4AED4B75
:103A5000CDE90C0100F03DFBCDE90E0102F0A0F82C
:103A60000022E94BCDE9100100F033FB0022E84BC6
:103A7000CDE9120100F02AFBCDE9140100F028FC89
:103A800080B21890DD4880780B9000F014FCDC4A7E
:103A9000DC4BCDE90C0100F01CFBCDE90E0101F07F
:103AA00055FB0022DB4BCDE9100100F012FB002298
:103AB000D64BCDE9120100F009FBCDE9140100F06D
:103AC00007FC80B21790CD4880780B9000F0F3FB94
:103AD000CB4ACC4BCDE90C0100F0FBFACDE90E014D
:103AE00002F05EF80022CB4BCDE9100100F0F1FAB4
:103AF0000022C74BCDE9120100F044FACDE91401D0
:103B000000F0E6FB80B216900020009016A80FC8C7
:103B1000FEF7B0FBB9488078059000F0CCFB00229E
:103B2000BD4BCDE9060100F046FBCDE90A01B348E3
:103B30004078079000F0BFFBCDE90801DDE90A23DA
:103B400000F020FAAE4AAF4BCDE90C0100F0C1FA0B
:103B5000CDE90E0101F0FAFA0022B04BCDE91001D7
:103B600000F0B7FA0022A94BCDE9120100F00AFAE1
:103B7000CDE9140100F0ACFB80B219909F48807829
:103B8000059000F098FB0022A34BCDE9060100F060
:103B900012FBCDE90A0199484078079000F08BFBB1
:103BA000CDE90801DDE90A2300F0ECF9944A954BD0
:103BB000CDE90C0100F08DFACDE90E0101F0F0FF26
:103BC0000022964BCDE9100100F083FA0022904BC1
:103BD000CDE9120100F07AFACDE9140100F078FB8A
:103BE00080B2189085488078059000F064FB002230
:103BF000894BCDE9060100F0DEFACDE90A017F48E4
:103C00004078079000F057FBCDE90801DDE90A2371
:103C100000F0B8F97A4A7B4BCDE90C0100F059FA73
:103C2000CDE90E0101F092FA00227B4BCDE91001A3
:103C300000F04FFA0022754BCDE9120100F046FA70
:103C4000CDE9140100F044FB80B217906B488078F6
:103C5000059000F030FB00226F4BCDE9060100F02B
:103C6000AAFACDE90A0165484078079000F023FBE5
:103C7000CDE90801DDE90A2300F084F9604A614BCF
:103C8000CDE90C0100F025FACDE90E0101F088FF25
:103C90000022614BCDE9100100F01BFA00225C4BC1
:103CA000CDE9120100F06EF9CDE9140100F010FB2E
:103CB00080B216900020009016A80FC8FEF7DAFA1E
:103CC0004E488078059000F0F6FA0022544BCDE97A
:103CD000060100F070FACDE90A01484840780190E9
:103CE00000F0E9FA00224C4BCDE9020100F063FA42
:103CF000CDE9060141480078039000F0DCFACDE9F7
:103D00000401DDE9062300F03DF9CDE90801DDE914
:103D10000A2300F037F9434A434BCDE90C0100F088
:103D2000D8F9CDE90E0101F011FA00223F4BCDE99F
:103D3000100100F0CEF90022344BCDE9120100F061
:103D400021F9CDE9140100F0C3FA80B219902B4893
:103D50008078059000F0AFFA0022314BCDE90601E2
:103D600000F029FACDE90A0124484078019000F0DA
:103D7000A2FA0022284BCDE9020100F01CFACDE99D
:103D800006011E480078039000F095FACDE9040181
:103D9000DDE9062300F0F6F8CDE90801DDE90A23A4
:103DA00000F0F0F81F4A204BCDE90C0100F091F92A
:103DB000CDE90E0101F0F4FE00221C4BCDE910010B
:103DC00000F087F90022124BCDE9120100F07EF9D4
:103DD000CDE9140100F07CFA80B218900748807891
:103DE000059000F068FA00220D4BCDE9060100F0C5
:103DF000E2F9CDE90A010148407819E040000020CD
:103E00001A4E66F3E9CEBA3F0000344000C06C4061
:103E100000005E400080564000004E4000002E40F2
:103E20000020AC40D0F01F3852C1E03F00002440D9
:103E3000019000F040FA0022414BCDE9020100F070
:103E4000BAF9CDE906013F480078039000F033FA53
:103E5000CDE90401DDE9062300F094F8CDE908017D
:103E6000DDE90A2300F08EF8374A384BCDE90C0122
:103E700000F02FF9CDE90E0101F068F90022344B72
:103E8000CDE9100100F025F90022324BCDE91201F5
:103E900000F01CF9CDE9140100F01AFA80B2179075
:103EA00028488078059000F006FA00222A4BCDE9D8
:103EB000060100F080F9CDE90A012248407801901E
:103EC00000F0F9F900221E4BCDE9020100F073F970
:103ED000CDE906011B480078039000F0ECF9CDE92C
:103EE0000401DDE9062300F04DF8CDE90801DDE924
:103EF0000A2300F047F8144A144BCDE90C0100F0F6
:103F0000E8F8CDE90E0101F04BFE0022104BCDE99F
:103F1000100100F0DEF80022104BCDE9120100F094
:103F200031F8CDE9140100F0D3F980B216900020E9
:103F3000009016A80FC8FEF79DF91BB000BD000049
:103F400000004E4040000020D0F01F3852C1E03F3A
:103F50000000444000C06C400020AC4000005E40C7
:103F600040EA01039B0703D009E008C9121F08C0FB
:103F7000042AFAD203E011F8013B00F8013B521E7B
:103F8000F9D270472DE9FE4F804681EA0300C00F49
:103F90000C46009021F0004123F00045B8EB0200F0
:103FA000A94105D24046214690461C460B46024692
:103FB00023F00040104347D0270DC7F30A00C3F396
:103FC0000A510290401A019040286BDAC3F31300A3
:103FD00040F4801B0098924620B10023D2EB030AE4
:103FE00063EB0B0B01985946C0F14002504600F0BC
:103FF000B9F906460D4650465946019A00F0D1F9E6
:1040000010EB08006141002487EA115284EAE7734B
:104010001A4340D0009A62B3019A012A4FEA07522C
:1040200015DC001B61EB02014FF0004202EA07526F
:10403000CDE90042001C41F5801132462B4600F0CC
:10404000D1F903B0BDE8F08F40462146F9E7001BE7
:1040500061EB0201001C41F5801300185B41201840
:10406000A2F5001747EB030140EAD570B6196D4180
:1040700011E06D084FEA360645EAC0754FEA07526F
:10408000001B61EB0201001C41F5801149084FEA59
:1040900030000019514132462B4603B0BDE8F04FC5
:1040A00000F091B90098012240000023D0EB0202F9
:1040B00063EBE073009821464FEAE074B8EB000030
:1040C00061EB0401E9E783F000435BE781F0004125
:1040D00058E72DE9FE4F81EA030404F0004421F083
:1040E000004100944FF0000B23F0004350EA01041C
:1040F0005ED052EA03045BD0C3F30A54C1F30A55FD
:104100002C44A4F2F3340194A0FB0254C1F3130134
:1041100041F48011C3F3130343F4801301FB024401
:1041200000FB034E840A970A44EA815447EA835706
:10413000A4FB076802958D0A05FB07854FEA932CBF
:1041400004FB0C542705029D4FEA065847EA163730
:10415000B5EB08056EEB070C870E920E47EA811748
:1041600042EA8312A7FB0201B6EB0B0164EB0004E9
:104170002B0D43EA0C335E1844EB1C50DA465146D3
:10418000E7FB0201C5F313044FEA0B3343EA145370
:104190004FEA0432019C43EA0603A4F10C040294A2
:1041A000009CCDE900B400F01DF903B0BDE8F08F2C
:1041B00000200146F9E72DE9F04D81EA030404F0FF
:1041C000004B21F0004514464FF0000A23F0004157
:1041D00050EA050220D054EA01021DD0C5F30A5767
:1041E0000246C5F31303C1F31300C1F30A5640F4AA
:1041F000801543F48013A7EB0608101BD64608F27F
:10420000FD3873EB050002D308F1010801E09218B4
:104210005B41B8F1000F03DA00200146BDE8F08DE4
:1042200000204FF48011064684460EE0171B73EB06
:10423000050705D3121B63EB050306434CEA010C8B
:1042400049084FEA300092185B4150EA0107EDD16E
:1042500052EA030012D082EA040083EA050108430F
:1042600005D0101BAB4106D20122002306E000223C
:104270004FF0004302E06FF0010253101AEB06000A
:104280004CEB085110EB0A0041EB0B01BDE8F04D7F
:1042900000F099B80EB5C10F80EAE0700844CA0773
:1042A000002140F233438DE80E000A460B4600F031
:1042B00099F803B000BD0EB540F2334102910021E0
:1042C000CDE900110A460B4600F08CF803B000BDA2
:1042D000C1F30A5210B5C1F3130140F2FF3341F4A8
:1042E00080119A4201DA002010BD40F233439A4215
:1042F000A2F2334203DC524200F043F810BD90407A
:1043000010BD2DE9F05F0546002092469B46884689
:104310000646814640241BE0284641464746224641
:1043200000F02FF853465A46C01A914110D3114657
:104330001846224600F016F82D1A67EB01084F4682
:1043400022460120002100F00DF817EB00094E4134
:10435000201EA4F10104DFDC484631462A464346CC
:10436000BDE8F09F202A04DB203A00FA02F1002089
:1043700070479140C2F1200320FA03F319439040A3
:104380007047202A04DB203A21FA02F0002170470E
:1043900021FA02F3D040C2F12002914008431946AD
:1043A0007047202A06DBCB17203A41FA02F043EA95
:1043B000E07306E041FA02F3D040C2F120029140DE
:1043C00008431946704710B5141E73F1000408DA4B
:1043D000401C41F1000192185B411A4301D120F0C9
:1043E000010010BD2DE9F04D92469B4611B1B1FA86
:1043F00081F202E0B0FA80F220329046FFF7B2FF7D
:1044000004460F4640EA0A0041EA0B0153465A4669
:10441000084313D0114653EA010019D0C8F14002F5
:104420005046FFF7AEFF05460E46504659464246F7
:10443000FFF798FF084305D0012004E020463946E5
:10444000BDE8F08D0020054346EAE0762C43374373
:104450000A986305E40AA0EB08000022FD0A44EA7A
:1044600047540A3002D500200146E9E7010510193A
:104470006941DDE9084500196941BDE8F04DA2E751
:1044800070B521F0004303430CD0C1F30A5500245A
:10449000D5EB040564EB0403D617AD1AB34102DB78
:1044A0000020014670BD201841EB025170BD000094
:1044B00030B5041E71F1000404DB4FF000444042AB
:1044C00064EB0101141E73F1000405DB1C464FF080
:1044D0000043524263EB0403994208BF904230BD4F
:1044E000064C074D06E0E06840F0010394E8070041
:1044F00098471034AC42F6D3FBF71EFE607A0008F2
:10450000807A00082DE9F04D00231A461B1A8A41D3
:1045100003DB00200146BDE8F08DC1F30A52C1F370
:10452000130141F480154FF0000BD10702D10018A0
:104530006D41521E0027044640F2FF11384601EB40
:10454000620A3E468046024600204FF48011FFF783
:1045500018FFC2197141BB1846EB0100B4EB030C04
:1045600075EB000C04D3E41A65EB000517460E4604
:10457000241908F101006D4180463428E3DDF91962
:1045800046EB0600091BA84103D24FF0FF32134649
:1045900001E0002213461BEB070046EB0A51BDE881
:1045A000F04DFFF710BF70B5C1F30A5201F000459E
:1045B0000024C1F3130140F2FF3341F480119A4209
:1045C00001DA002070BD40F233439A42A2F2334236
:1045D00003DC5242FFF7D5FE00E090402C43F1D0BF
:1045E000404270BD0FB4054B10B503A9044A0298B0
:1045F00000F076FB10BC5DF814FB0000FD2F0008F6
:10460000380000200FB4084B10B504A902AA039883
:1046100000F066FB044602A9002000F092FD20464F
:1046200010BC5DF814FB000043510008490050EA3B
:10463000C12018BF04204A0D18BF40F0010040F20D
:10464000FF72B2EB515F08BF40F00200012808BFC3
:10465000052070472DE9F74F144694B00021C4E9B6
:1046600002111599079121F00045C9498D4206DCD8
:104670001599C4E9000117B00020BDE8F08FC549C5
:10468000DFF814A3A9423CDD0799C44E0029C44FAA
:10469000C44A1599534619DDFFF715FD554506D057
:1046A000C14AC24BFFF70FFDC4E900010AE04FF019
:1046B000D352BE4BFFF707FD32463B46FFF703FDE3
:1046C000C4E9000117B00120BDE8F08FFFF75AFCE4
:1046D000554506D0B44AB54BFFF754FCC4E9000178
:1046E0000AE04FF0D352B14BFFF74CFC32463B4649
:1046F000FFF748FCC4E9000117B04FF0FF30BDE8F8
:10470000F08FAB49A942159978DB21F0004183462F
:104710008846A84AA84BFFF7DCFC0022A74BFFF70E
:1047200031FCFFF740FF0990FFF7B4FD06460F4646
:104730009C4A5346FFF7CDFC43465A46FFF7C6FC5A
:1047400080468A46984A994B30463946FFF7C1FC65
:104750002A0D01250B9242465346FFF7B7FC032D65
:10476000C4E9000139D00B98C1F30A51401A05EB96
:1047700045111139814230DA9148C346784400EB43
:104780000510CDF80CA00C90D0E900233046394636
:10479000FFF79FFC02460B4604910690584603998A
:1047A000FFF791FC80468A4602460B46584603991D
:1047B000FFF789FC049B069AFFF785FC83460C985B
:1047C00003913946D0E902233046FFF782FC5A466E
:1047D000039BFFF778FC6D1CBDE707980028A2BF7C
:1047E000099817B0BDE8F08F616881F00041616001
:1047F000099817B04042BDE8F08FFFE7844615984E
:10480000C1F31301C0F30A50A0F2F5304FEA60186B
:1048100000F01F06C6F120001390002006900790BC
:1048200041F4801E05206D4676B1664A08EB000112
:104830007A4452F8213002EB8101B3404A6813995F
:1048400022FA01F1194305E05F4908EB00027944BF
:1048500051F82210A1FB0E27A1FB0C131A449A4217
:1048600034BF0123002303EB070A05EB8003D3E9E0
:1048700001B70F448F4234BF0121002193448B4480
:1048800011B1934502D903E0934501D2012100E023
:104890000021C3E901B7514445F82010011EA0F1E1
:1048A0000100C1DC0298059F00F10050800F1290BA
:1048B0000298DDE903568000FFF7ECFC83462846AA
:1048C0000D91FFF7F8FC6FF01D02FFF7D9FDCDE960
:1048D0000E013046FFF7EFFC6FF03D02FFF7D0FD11
:1048E00080468A463846FFF7E6FC6FF05D02FFF728
:1048F000C7FD0746424653461191FFF743FBDDE9EA
:104900000E23FFF73FFB5A460D9BFFF73BFB0025AD
:104910000E465A4628460D9BFFF7D5FBDDE90E23D0
:10492000FFF7D1FB42465346FFF7CDFB3A46119BBA
:10493000FFF7CCFBDFF898A0244A5346FFF7C9FBEA
:1049400007468846234A244B31462846FFF7C1FBD9
:104950003A464346FFF716FB074688464FF0A84203
:10496000534631462846FFF7B4FB3A464346FFF725
:1049700009FB159A12F0004F04D0129A81F0004101
:1049800052421292C4E90001129817B0BDE8F08FAC
:10499000FB21E93F7CD90240FB21F93F7370032ED4
:1049A0008A19A33B000040543163621A61B4D03DC0
:1049B000FB21394183C8C96D305FE43F0000E03F0F
:1049C000F03100006C3100004E310000182D4454CD
:1049D000FB21F93D3326A611460B113C2DE9FF4D75
:1049E00021F0004807460C46B8F1795F08DAFFF776
:1049F000DAFD002801BF0020324904B0BDE8F08D87
:104A00003A46234610461946FFF763FB0546024621
:104A10002D480E460B460621784400F05DF82A46E4
:104A20003346FFF756FBDDE9022382468B463846C4
:104A30002146FFF74EFB04460F4652465B4628468A
:104A40003146FFF746FB22463B46FFF73CFB074655
:104A50008A464FF0FF3228463146FFF711FD1B4AC8
:104A600090450ADA3A465346FFF72DFB04B0002280
:104A7000BDE8F04D134BFFF729BB154A4245A8BFCF
:104A8000A8F500154FF00004B8BF124D22462B4682
:104A9000FFF719FB0646884622462B4600200949A7
:104AA000FFF711FB04460D463A4653463046414651
:104AB000FFF709FB04B022462B46BDE8F04DFFF797
:104AC00005BB00000000F03F1C2F00003333D33F34
:104AD0000000E93F0000D23F2DE9F0414F1E00EBFE
:104AE000C7010446D1E9000115461E4637F006020B
:104AF0000DD02A463346FFF7ECFA7F1E04EBC703BE
:104B0000D3E90023FFF73EFA37F00602F1D1022F76
:104B100025D0042F13D0062F18BFBDE8F0812A46F8
:104B20003346FFF7D6FAD4E90A23FFF72BFA2A46D1
:104B30003346FFF7CEFAD4E90823FFF723FA2A46D3
:104B40003346FFF7C6FAD4E90623FFF71BFA2A46D5
:104B50003346FFF7BEFAD4E90423FFF713FA2A46D7
:104B60003346FFF7B6FAD4E90223FFF70BFA2A46D9
:104B70003346FFF7AEFAD4E90023BDE8F041FFF772
:104B800001BA00002DE9FF4D054621F0004084B038
:104B90000C46B0F1795F0BDA2846FFF747FD042891
:104BA00008BF00F07FF8284608B02146BDE8F08D28
:104BB0002A460B461046FFF78CFA06460F462A4651
:104BC0002346FFF786FA804626488A4632463B4609
:104BD00005217844FFF780FF83461098029160B367
:104BE000214A224B40465146FFF773FACDE90001B6
:104BF0005A4640465146029BFFF76BFA824688466A
:104C0000DDE906014FF0FF32FFF73AFC524643461A
:104C1000FFF759FA32463B46FFF75BFADDE9062318
:104C2000FFF751FADDE90023FFF74DFA08B02A46F5
:104C30002346BDE8F04DFFF749BA0B465A463046C9
:104C40003946FFF746FA084A084BFFF79BF94246F8
:104C50005346FFF73EFA08B02A462346BDE8F04D1A
:104C6000FFF790B9622E0000495555555555C5BFFF
:104C70000022134610460149FFF79DBA0000F03F9D
:104C80000122FFF7FDBBFFF77DB900221346104656
:104C90001146FFF790BA40F2013200204FF0E04198
:104CA000FFF7EEBB024A00201107FFF7E9BB000047
:104CB00001FDFFFF02E008C8121F08C1002AFAD157
:104CC00070477047002001E001C1121F002AFBD18C
:104CD0007047000001490860704700003C00002058
:104CE0002DE9FF4F8DB00F460546002606E025282A
:104CF0000BD0DDE90F1290476D1C761C2878002838
:104D0000F5D111B03046BDE8F08F0024A246A1468F
:104D10000122EC4900E0044315F8013F203B02FA70
:104D200003F00842F7D128782A2810D06FF02F021C
:104D30002878A0F13001092914D80AEB8A0102EB86
:104D4000410144F0020400EB010A6D1CF0E701CFC1
:104D50005FEA000A03D544F40054CAF1000A44F0A3
:104D600002046D1C28782E2817D115F8010F44F085
:104D700004042A280ED06FF02F022878A0F1300109
:104D800009290AD809EB890102EB410100EB01096D
:104D90006D1CF2E757F8049B6D1C28786C280FD027
:104DA00006DC4C2817D068280DD06A2814D104E0FE
:104DB000742810D07A280FD10DE044F400140AE0D2
:104DC00044F4801401E044F440146978814202D133
:104DD00004F580146D1C6D1C2A786E2A1FD00CDC23
:104DE000632A31D004DC002A8BD0582A11D1A3E0E9
:104DF000642A68D0692A0CD165E0732A2ED004DCBD
:104E00006F2A73D0702A04D19BE0752A6FD0782A5C
:104E10006ED01046DDE90F129047761C50E1C4F3C6
:104E20000250022806D0032809D0042801CF09D057
:104E3000066045E101CFF117C0E9006140E101CF13
:104E400006803DE106703BE117F8040B8DF8000089
:104E500000208DF80100EB46012003E057F804BB69
:104E60004FF0FF3061074FF0000102D40DE008F170
:104E70000101884649450FDA8045F8DB1BF8081028
:104E80000029F4D108E008F1010188468142FADBEB
:104E90001BF808100029F6D1DDE90F23AAEB080062
:104EA0008146214600F036F9304400EB080604E064
:104EB000DDE90F121BF8010B9047B8F10108F7D29A
:104EC00021464846F7E00A21C4F302534FF0000B95
:104ED0000891022B04D001CFC117032B09D00AE09F
:104EE000FF1D27F00707F7E8020108E032E01FE0A6
:104EF00020E000B2C117042B01D140B2C117031E3C
:104F000071F1000307DA4FF0000CD0EB0C006CEBF2
:104F100001012D2302E0230504D52B238DF8243035
:104F2000012303E0E30701D02023F7E7984658E088
:104F30000A2110E010210EE010204FF0000B089025
:104F40000CE010214FF0000B44F004044FF008096E
:104F5000089103E008214FF0000B0891C4F30253BD
:104F6000022B04D001CF0021032B06D006E0FF1D49
:104F700027F00707F7E8020103E080B2042B00D115
:104F8000C0B24FF0000823072BD5702A07D0DDF8F8
:104F900020C08CF0100C5CEA0B0C05D00EE0402316
:104FA0008DF82430012308E050EA010306D03023B5
:104FB0008DF824308DF8252002239846DDF820C096
:104FC0008CF0080C5CEA0B0C0BD150EA010301D108
:104FD000630706D530238DF824304FF00108A9F17E
:104FE0000109582A04D038A20B9208AA0A920BE0B1
:104FF0003AA2F9E75B46089AFFF783F90B9B9B5CA3
:105000000A9A521E0A92137050EA0102F2D10A98CB
:10501000ADEB000000F1200B600702D524F48034D2
:1050200001E04FF00109D94502DDA9EB0B0000E0DA
:10503000002000EB0B0141440890AAEB010AE003B9
:1050400006D4DDE90F232146504600F063F80644FC
:105050004FF0000908E009A911F80900DDE90F1275
:10506000904709F10109761CC145F4DBE0030CD53A
:10507000DDE90F232146504600F04CF8064404E0D9
:10508000DDE90F1230209047761C0899481E0890E1
:105090000029F5DC08E00A980A990078491C0A9171
:1050A000DDE90F129047761CBBF10001ABF1010B5B
:1050B000F1DC21465046DDE90F2300F019F80644E3
:1050C0006D1C1BE609280100303132333435363788
:1050D0003839616263646566000000003031323344
:1050E00034353637383941424344454600000000E4
:1050F0002DE9F041044600251E461746880404D4D5
:1051000005E039462020B0476D1C641EF9D52846BD
:10511000BDE8F0812DE9F041044600251E46904689
:10512000C80301D5302700E02027880404D505E016
:1051300041463846B0476D1C641EF9D52846BDE887
:10514000F0810A68531C0B601070704700B5244B47
:1051500021F0004287B09A42DCBF0022134629DDCD
:10516000204B9A4208D140B94FF00100FFF7B2FD41
:10517000FFF78BFD07B000BD03DBFFF781FD07B034
:1051800000BD02AAFFF766FA10F0030104BF0DF19B
:10519000080C9CE80F000DD0012001290ED0022937
:1051A00014D00DF1080C00909CE80F00FFF7EAFC0A
:1051B00007B000BDFFF712FC07B000BD0DF1080CF1
:1051C00000909CE80F00FFF7DDFC05E00DF1080CF6
:1051D0009CE80F00FFF702FC07B081F0004100BD22
:1051E000FB21E93F0000F07F2DE9F04D16460F4608
:1051F00094B01C4621F0004123F00042002814BF67
:105200004FF0010C4FF0000C0CEB470CFE4B0CEB7D
:1052100003054FEA630C65452BD3350018BF012504
:1052200005EB44051D44F94B9D4222D3F84B52EA4D
:10523000060C02D09F4205D148B914B0002019468F
:10524000BDE8F08D002808BF4FF0000C01D04FF0F2
:10525000010C0CEB470313F5001F0AD8002E14BFF6
:105260004FF0010C4FF0000C0CEB440313F5001F42
:1052700007D914B0324623463946BDE8F04DFFF752
:1052800002BDDFF890834FF0000A002FB8BF4245FF
:1052900023DAE14B9A42A8BF4FF0020A1DDADC4B39
:1052A00093421ADCDD4B03EB2253142B08DDC3F1D0
:1052B000340C26FA0CF303FA0CFCB4450DD108E0CB
:1052C0005EB9C3F1140C22FA0CF303FA0CFC9445FA
:1052D00003D103F00103C3F1020A51EA00031BD119
:1052E000002C19DA002F18BFBAF1020F02D0BAF160
:1052F000010F07D00220FFF7EDFC14B0BDE8F04D20
:10530000FFF7B6BC0220FFF7E5FCFFF7B1FC14B0D5
:1053100081F00041BDE8F08D330070D1424525D1C8
:1053200007F1804212F5801201BF00280020B84921
:1053300014B008BFBDE8F08DB548884207DC002CEA
:10534000A1BF1846214614B0BDE8F08D07E0002C3F
:10535000BFBF184684F0004114B0BDE8F08DB049DD
:105360007944D1E9000114B0BDE8F08DDFF8A0C2A6
:1053700062452AD1002C24DA39B1414517D10028E1
:1053800004BF002002461CD106E040B10220FFF716
:10539000A1FCFFF780FC0A46394600F0D7BA9D4AC7
:1053A000394614B0002062F31E01BDE8F08D08DA22
:1053B00014B03B46BDE8F04D024600206146FEF7C2
:1053C000FABE14B03946BDE8F08D414517DAB4F1A4
:1053D000804F0CD0A4F10053B3F1FF530FD13B1E0B
:1053E0000DDB14B01946BDE8F04D00F029BC3B467A
:1053F00014B00246BDE8F04D1946FEF76ABE05003E
:1054000027F000433AD1E1B1414537D1002F06DD05
:10541000002CA1BF0020414614B0BDE8F08D002F44
:1054200001DD002C1FDB002F16DA002C14DBBAF193
:10543000010F4FF0000014BF76497A4914B0BDE85F
:10544000F08DBAF1020F18BF002F0CD0BAF1010F86
:1054500009D1002F07DA0BE0002FB8BF002C0DDABE
:10546000BAF1010F04D0002014B00146BDE8F08D60
:1054700014B000204FF00041BDE8F08D4FF001085E
:1054800008EBE77CCDF814C05CEA0A0C0DD0DFF81D
:1054900098C162457EDDDFF894C1654B624512DD3F
:1054A0008B420ADB002C18DB23E00120FFF712FC03
:1054B00014B0BDE8F04DFFF7E8BB554A8A4202DC64
:1054C000002C0ADC15E0994202DA002C11DA04E023
:1054D0004F4B994219DD002C0BDD0220FFF7FAFB40
:1054E000FFF7D9FB4B4A14B061F31E021146BDE829
:1054F000F08D0220FFF7EEFBFFF7D4FB444A14B017
:1055000061F31E021146BDE8F08D00223946FEF718
:10551000DAFD07460D466FF00102FEF7B1FF4FF0CE
:105520005532444BFEF7D2FD3A462B46FEF7D1FDED
:105530000022414BFEF7CAFD80468B463A462B4679
:1055400010461946FEF7C5FD42465B46FEF7C1FD13
:1055500088460E904FF0C042384B38462946FEF739
:10556000B8FD83460091364A344B41460E98FEF70B
:10557000B0FD80460191334A334B38462946FEF749
:10558000A8FD4246019BFEF79EFD0D4602460B46D6
:105590000C9000E011E058460099FEF7F3FC00275C
:1055A00088465A463846009BFEF78DFD2B460C9ADE
:1055B000FEF78CFD024600F079B90020B1F5801F9E
:1055C00007DA352228461946FEF75AFF05466FF0DE
:1055D000340000EB2150A0F2FF300190C1F3130022
:1055E00040F07F6141F04051029118498842D8BF94
:1055F0004FF0000B35DD16498142C8BF4FF0010B5B
:105600002FDC4FF0000B25E0FFFF1F00FFFF0F0016
:105610000000F03F0000F07F0000404301FCFFFF6E
:10562000042600000000F0FF0000E0410000F0430D
:10563000FFFFEF3F5555D53F0000E03F4715F73FCF
:10564000FE822B6544DF5DF80BAE543E8E9803005E
:105650007AB60B000198401C01900298A0F58010CA
:105660000290FF480299784400EBCB000991D0E901
:10567000002328460B931292FEF725FD00910A9015
:1056800028460B9B129A0999FEF77CFC02460B46B2
:105690000020F449FEF78FFDCDE90C010B460246D0
:1056A00000990A98FEF715FD0690EF4888460027F6
:1056B00078440299006810904FF0005040EA610071
:1056C00000EB8B4000F5002102910B9B129A109881
:1056D000FEF7F9FC2A46099BFEF7F8FC3A464346DA
:1056E000FEF7F7FC0891129038464146029B109A4B
:1056F000FEF7EFFC009B0A9AFEF7E8FC089B129A63
:10570000FEF7E1FCDDE90C23FEF7E3FC0B91069AC2
:105710001290434610461946FEF7DBFC054602464A
:10572000D2480B460A9106217844FFF7D5F90A9B27
:105730002A460891029010461946FEF7CAFC089BBB
:10574000029AFEF7C6FC05460991434638461946BB
:10575000069AFEF717FC0B9B129AFEF7BAFC2A4634
:10576000099BFEF70FFCCDE908013A464346104677
:105770001946FEF7AEFC0A910022BD4B0090FEF7E1
:1057800001FCDDE90823FEF7FDFB0D463A46B84B68
:105790003846FEF798FC0A9B009AFEF794FCDDE978
:1057A0000823FEF793FCCDE908013A462B46104644
:1057B0004146FEF78EFC00910A90DDE90801434660
:1057C000069AFEF786FC069088462B463A460B99C9
:1057D0001298FEF77EFC4346069AFEF7D3FB8046FE
:1057E0000B4602460D9100990A98FEF7CBFB00206C
:1057F0000F460546009B0A9AFEF765FC42460D9B44
:10580000FEF764FC88460E904FF06042994B2846A4
:105810003946FEF75EFC02910090974A954B41464F
:105820000E98FEF756FC80460391944A944B284606
:105830003946FEF74EFC4246039BFEF7A3FB914A16
:105840007A4402EBCB03D3E90023FEF79BFB05462A
:1058500007910198FEF71EFD0C9003912A46079BC5
:1058600002990098FEF78EFB874A7A4402EBCB033D
:10587000D3E9002393460193FEF784FB039B0C9A24
:10588000FEF780FB002788463846039B0C9AFEF7FC
:105890001AFC5A46019BFEF716FC029B009AFEF783
:1058A00012FC2A46079BFEF711FC024600200690D8
:1058B00005986C4DAAF10103184301D1734D069070
:1058C00000200B46049030462146FEF702FC82463B
:1058D0008B46234630461946049AFEF7F4FB3A46B7
:1058E0004346FEF7F6FB52465B46FEF74BFB064689
:1058F0008A463A46434621460498FEF7EAFB0446A8
:105900000F4632465346FEF73DFB614A8B469142B5
:1059100021DBABEB020353EA000210D122463B46E7
:10592000FEF7D1FB804603915A4A5B4B3046514605
:10593000FEF728FB4246039BFEF7BAFD27D2022062
:10594000FFF7C8F9FFF7A7F90A46294614B062F332
:105950001E01BDE8F08D514B2BF000429A4216D348
:105960004F4A0BEB020353EA000208D122463B46A2
:10597000FEF7A9FB32465346FEF79AFD07D80220F0
:10598000FFF7A8F9FFF78EF90A462946DEE72BF064
:1059900000404449444A01EB20514FF00008824244
:1059A00023DA481C4FF4801121FA00F058443F4A92
:1059B000C0F30A517A443E4BA1F2FF31CB4020EABA
:1059C0000303C0F3130040F4801CC1F114001268FB
:1059D0002CFA00F8BBF1000FB8BFC8F10008204650
:1059E0003946FEF770FB04460F4622463B463046DA
:1059F0005146FEF7C7FA4FF0000B5A462D4B58465A
:105A00000391FEF766FB00910A902B4A2B4B5846F8
:105A10000399FEF75EFB0491029022463B465846EE
:105A20000399FEF750FB32465346FEF74FFB244ADC
:105A3000244BFEF74EFB049B029AFEF7A3FA07469F
:105A40008A46009B0A9AFEF79DFA04460E46009B82
:105A50000A9AFEF738FB3A465346FEF737FB33E027
:105A6000462200000000F03FB4220000B4210000F4
:105A70000000084009C7EE3FFD033ADCF5015B1466
:105A8000E02F3EBE8C200000522000000000F0BF3E
:105A900000009040FE822B654715973C00CC90405B
:105AA00000346F3F01FCFFFF0000E03FB01F00002B
:105AB000FFFF0F00432EE63F396CA80C615C20BE4F
:105AC000EF39FAFE422EE63F0746224633460F9153
:105AD00010461946FEF7FDFA834602462E488A46CE
